:060000000A128A11F02F24
:10000C0083120313971517151214921012158316D9
:10001C000313071108008312031306160C30831206
:10002C000313DD00DD0B18280000831203130613E5
:10003C00861E1E281014861A212810100F08DD00A9
:10004C00DE015D08DE00DD015D080E04EB005E08DC
:10005C00EC00ED01EC1BED036D08EE006C08E0000C
:10006C006B08DF006008F9005F08F8000A128A15B7
:10007C00DC240A128A11780883120313A30079086E
:10008C00A4007A08A5004830A0006B30A1004230D3
:10009C00A2000A128A1196220A128A1183120313E1
:1000AC002008CD002108CE002208CF000A128A11A8
:1000BC00DE20831203134E08E0004D08DF005F08BA
:1000CC00013EDF0060080318013E003EE0006008BE
:1000DC00DC005F08DB000800730803197A2872083B
:1000EC0071047004031D8D280030F0000030F10005
:1000FC000030F20008000130F5007508F3070130FC
:10010C000310F20CF10CF00CFF3E031D8628FE30A0
:10011C0072050319A82881280130F5007508F3072A
:10012C000130F007003003180130F10700300318DC
:10013C000130F20701300310F20CF10CF00CFF3E11
:10014C00031DA128FF3072050319B728922801302E
:10015C00F30201300310F00DF10DF20DFF3E031D03
:10016C00B028F11BBD28023073020318AD28731898
:10017C00C528FF30F0057F30F105FF30F205031084
:10018C00F30C7308F500F601F70110300310F50DB0
:10019C00F60DF70DFF3E031DCC287508F00476080C
:1001AC00F1047708F204740803190800F217080028
:1001BC00831203134D08D1004E08D2004F08D30010
:1001CC000310520D530DD4005408DA005A08031DC5
:1001DC00F8280030D0000030CF000030CE000030C6
:1001EC00CD0008004D08D1004E08D2004F08D300B6
:1001FC0017300310D30CD20CD10CFF3E031DFF287B
:10020C005108D4005408D500CE17FF30CD05FF306F
:10021C00CE050030CF054D08D6004E08D7004F084C
:10022C00D800D9018E30DA02DA1F3A295A08803AFE
:10023C008F3E03182A290030D0000030CF00003048
:10024C00CE000030CD00080001300310D90CD80CC2
:10025C00D70CD60CFF3E031D2B290130D1005108C1
:10026C00DA07031955292A2918305A02031C522976
:10027C000030D0000030CF000030CE000030CD0078
:10028C0008000130D1000310D60DD70DD80DD90DB3
:10029C00D10B49290130DA025A08031D47295508A8
:1002AC0003196329D609D709D809D909D60A03191C
:1002BC00D70A0319D80A0319D90A5908D0005808C3
:1002CC00CF005708CE005608CD0008008312031348
:1002DC00A101F31F7E29F009F109F209F309F00AD3
:1002EC000319F10A0319F20A0319F30AA101A10A6D
:1002FC00F71F8F29F409F509F609F709F40A031910
:10030C00F50A0319F60A0319F70A0130F800780800
:10031C00A1060030A5000030A4000030A30000307E
:10032C00A20073087204710470040319E429A0017B
:10033C00A00AF31BAF290130F8000310F00DF10DEA
:10034C00F20DF30DF80BA3290130F8007808A00783
:10035C009F290130F8000310A20DA30DA40DA50DCB
:10036C00F80BB12973087702031DC62972087602AF
:10037C00031DC62971087502031DC6297008740275
:10038C00031CD7297008F4027108031C710FF502C5
:10039C007208031C720FF6027308031C730FF7022A
:1003AC00221401300310F30CF20CF10CF00CFF3E94
:1003BC00031DD8290130A002031DAF292108031900
:1003CC00F229A209A309A409A509A20A0319A30ADF
:1003DC000319A40A0319A50A2508F3002408F2003E
:1003EC002308F1002208F0000800642A8316031386
:1003FC001F109F101F119F110800831603131F1449
:10040C009F101F119F110800831603131F109F14B8
:10041C001F119F110800831603131F149F141F1123
:10042C009F110800831603131F109F101F159F1197
:10043C000800831603131F149F101F159F1108002B
:10044C00831603139F141F159F11080083160313A3
:10045C001F109F101F119F150800831603131F14E4
:10046C009F101F119F150800831603131F109F1454
:10047C001F119F150800831603131F149F141F11BF
:10048C009F150800831603131F109F101F159F152F
:10049C000800831603131F149F101F159F150800C7
:1004AC00831603131F109F141F159F150800831626
:1004BC0003131F149F141F159F1508008312031399
:1004CC000108003A0319FC29013A0319032A033ADB
:1004DC0003190A2A013A0319112A073A0319182A8F
:1004EC00013A03191F2A033A0319262A013A031960
:1004FC002C2A0F3A0319332A013A03193A2A033AE0
:10050C000319412A013A0319482A073A03194F2AB9
:10051C00013A0319562A033A03195D2A952A080051
:10052C00831203132308A6002408A7002508A8009B
:10053C000310270D280DA9002908AE002E08031D55
:10054C00AE2A0030A0000030A1000030A20008004C
:10055C002008A6002108A7002208A8000310270DD8
:10056C00280DA9002908AF002F08031DC42A00304C
:10057C00A0000030A1000030A20008000030AB0049
:10058C000030AC000030AD0089302F07A6002608E3
:10059C00AE022308A6002408A7002508A8001030E6
:1005AC000310A80CA70CA60CFF3E031DD62A260888
:1005BC00A9002908AF002008A6002108A7002208DE
:1005CC00A80010300310A80CA70CA60CFF3E031DAE
:1005DC00E82A2608A9002908AF068030A6002608BC
:1005EC00AF05A417FF30A305FF30A4050030A50507
:1005FC00A117FF30A005FF30A1050030A20518306F
:10060C00A6002608AA0001300310AB0DAC0DAD0DF1
:10061C00FF3E031D0A2B22082502031D1B2B21085C
:10062C002402031D1B2B20082302031C282B20084B
:10063C00A3022108031C210FA4022208031C220A76
:10064C00A5022B1401300310A30DA40DA50DFF3E24
:10065C00031D292B0130AA02031D092B2B08F000C6
:10066C002C08F1002D08F2002E08A6002608F30035
:10067C002F08A7002708F4000A128A1172207008AC
:10068C0083120313A0007108A1007208A2000800D5
:10069C000130831203135C02003003195B02031850
:1006AC0008005C08F9005B08F8000A128A1524247B
:1006BC000A128A11780883120313A3007908A40084
:1006CC007A08A5000030A0008030A1004330A200C1
:1006DC000A128A1196220A128A1183120313200815
:1006EC00B3002108B4002208B5000030F7007A30BE
:1006FC00F6001230F5000030F400831603132008C6
:10070C0083120313DD0083160313210883120313D2
:10071C00DE0083160313220883120313DF008316F3
:10072C000313230883120313E00002300310DD0DC2
:10073C00DE0DDF0DE00DFF3E031D9C2B6008F3006A
:10074C005F08F2005E08F1005D08F0000A128A11E1
:10075C006C210A128A11730883120313A900720800
:10076C00A8007108A7007008A6000A128A15542563
:10077C000A128A11831203132608B0002708B1004D
:10078C002808B2000A128A111A240A128A1183123A
:10079C0003133008C3003108C4003208C500003010
:1007AC00C0008030C100BF30C2000A128A11ED2493
:1007BC000A128A11831203134008CD004108CE009F
:1007CC004208CF000A128A11DE200A128A11831203
:1007DC0003134E08DC004D08DB005C08DE005B08F0
:1007EC00DD000310DE0CDD0C5D080139DF00DF0ECF
:1007FC00DF0D17085F06DF395F0697005B080139CC
:10080C00DD00DD0E17085D06EF395D0697005C080C
:10081C00DE005B08DD000310DE0CDD0C0310DE0CCB
:10082C00DD0C5D0895000800831203133008B60038
:10083C003108B7003208B8000310370D380DB90075
:10084C003908BA003A08031D322C0030B0000030D1
:10085C00B1000030B20008003308B6003408B7000D
:10086C003508B8000310370D380DB9003908BF0032
:10087C003F08031D482C0030B0000030B1000030A0
:10088C00B20008003F087B3EB6003608BA073008B5
:10089C00B6003108B7003208B80010300310B80C9D
:1008AC00B70CB60CFF3E031D542C3608B9003908A2
:1008BC00BF003308B6003408B7003508B800103054
:1008CC000310B80CB70CB60CFF3E031D662C360893
:1008DC00B9003908BF068030B6003608BF05B1171D
:1008EC00B417FF30B305FF30B4050030B505003048
:1008FC00BB000030BC000030BD000730B60036082D
:10090C00BE00301C972C3308BB07340803110318A6
:10091C00340A031DBC07350803110318350A031DDF
:10092C00BD0701300310B20CB10CB00CFF3E031D1F
:10093C00982C01300310B30DB40DB50DFF3E031D03
:10094C00A02C0130BE02031D872C0930B6003608DE
:10095C00BE00301CBF2C3308BB073408031103182E
:10096C00340A031DBC07350803110318350A031D8F
:10097C00BD0701300310B20CB10CB00CFF3E031DCF
:10098C00C02C01300310BD0CBC0CBB0CFF3E031D76
:10099C00C82C0130BE02031DAF2C3B08F0003C08F4
:1009AC00F1003D08F2003A08B6003608F3003F08A3
:1009BC00B7003708F4000A128A11722070088312EB
:1009CC000313B0007108B1007208B2000800831262
:1009DC0003134008C6004108C7004208C8000310B2
:1009EC00470D480DC9004908CC004308C60044080F
:1009FC00C7004508C8000310470D480DC900490839
:100A0C00CB004C080319162D4B084C0203181D2D56
:100A1C004C03FF3A4B07C60019304602031C1D2D30
:100A2C004308C0004408C1004508C20008004B0838
:100A3C00031908004C084B0203182C2D4B03FF3AEA
:100A4C004C07C60019304602031808000630C600D1
:100A5C004608CA00C21BCA17C51B4A17C117FF306C
:100A6C00C005FF30C1050030C205C417FF30C305F7
:100A7C00FF30C4050030C5054B084C0203186C2D23
:100A8C0001300310C30DC40DC50DFF3E031D472DD2
:100A9C000130CB024B084C060319672D0130CA02FA
:100AAC004A0807390319672D462D01300310C20C73
:100ABC00C10CC00CFF3E031D5C2D0130C600460866
:100ACC00CC074C084B060319952D5B2D4C084B029B
:100ADC000318952D01300310C00DC10DC20DFF3E42
:100AEC00031D712D0130CC024B084C060319912DBE
:100AFC000130CA024A0807390319912D702D0130B3
:100B0C000310C50CC40CC30CFF3E031D862D013015
:100B1C00C6004608CB074C084B06031D852DCA1F83
:100B2C00A72DFF30C006FF30C106FF30C2060130D2
:100B3C00C007003003180130C10700300318013022
:100B4C00C2074A1FB92DFF30C306FF30C406FF3061
:100B5C00C5060130C307003003180130C40700304C
:100B6C0003180130C507CA014008C3074108031127
:100B7C000318410A031DC407420803110318420A53
:100B8C00031DC507C51FDC2DFF30C306FF30C4068F
:100B9C00FF30C5060130C307003003180130C4070D
:100BAC00003003180130C507CA01CA0A4308F00017
:100BBC004408F1004508F2004C08C6004608F30052
:100BCC004A08C7004708F4000A128A1172207008FC
:100BDC0083120313C0007108C1007208C200080020
:100BEC000A128A1513240A128A110A128A1564240D
:100BFC000A128A110A128A15FD240A128A11CF2EA2
:100C0C000A128A15FA230A128A110A128A15042466
:100C1C000A128A11C83083120313DB000030DC0087
:100C2C000A128A114E230A128A11CF2E8312031331
:100C3C006A08803AFF0080307F02031D272EC930DE
:100C4C006902031C022F0A128A15FA230A128A114E
:100C5C000A128A1504240A128A119630831203137D
:100C6C00DB000030DC000A128A114E230A128A11B2
:100C7C00CF2E831203136A08803AFF0080307F0264
:100C8C00031D4A2E83306902031C0F2F0A128A158A
:100C9C00FA230A128A110A128A1504240A128A11DA
:100CAC00783083120313DB000030DC000A128A1147
:100CBC004E230A128A11CF2E831203136A08803A2C
:100CCC00FF0080307F02031D6D2E50306902031827
:100CDC001C2F0A128A15FA230A128A110A128A1573
:100CEC0004240A128A11643083120313DB000030CF
:100CFC00DC000A128A114E230A128A11CF2E83129B
:100D0C0003136A08803AFF0080307F02031D902E87
:100D1C0033306902031C292F0A128A15FA230A128E
:100D2C008A110A128A1504240A128A11503083126D
:100D3C000313DB000030DC000A128A114E230A1266
:100D4C008A11CF2E831203136A08803AFF00803079
:100D5C007F02031DB32E1F306902031C362F0A12AB
:100D6C008A15FA230A128A110A128A1504240A1205
:100D7C008A111E3083120313DB000030DC000A12D0
:100D8C008A114E230A128A110A128A15F5230A12A5
:100D9C008A11831203138E018F010A128A159F2761
:100DAC000A128A11831203135C08EA005B08E9003B
:100DBC000A128A1592240A128A110A128A157A24A6
:100DCC000A128A11831203136A08803AFF008130D9
:100DDC007F02031DF32E5F3069020318062E831267
:100DEC0003136A08803AFF0081307F02031D002F35
:100DFC005F306902031C1C2E831203136A08803AAD
:100E0C00FF0080307F02031D0D2FC9306902031CC7
:100E1C003F2E831203136A08803AFF0080307F0252
:100E2C00031D1A2F83306902031C622E83120313D5
:100E3C006A08803AFF0080307F02031D272F513053
:100E4C006902031C852E831203136A08803AFF0083
:100E5C0080307F02031D342F33306902031CA82E0F
:100E6C00831203136A08803AFF0080307F02031D4F
:100E7C00412F1F3069020318CF2E0A128A1111203C
:100E8C000A128A11831203135C08E2005B08E1006A
:100E9C000A128A153F270A128A11831203135C085F
:100EAC00E6005B08E5000A128A15FA230A128A1179
:100EBC000A128A15F5230A128A11143083120313AD
:100ECC00DB000030DC000A128A114E230A128A1150
:100EDC00831203136608803AFF0080307F02031DE3
:100EEC00792F15306502031C982F831203136208A7
:100EFC00803AFF0080307F02031D862F153061027F
:100F0C00031C982F0A128A150E240A128A110A122F
:100F1C008A154E240A128A110A128A1504240A12FE
:100F2C008A11CF2E0A128A15FA230A128A110A1272
:100F3C008A15DF260A128A11831203135C08E40057
:100F4C005B08E3000A128A157F260A128A118312A3
:100F5C0003135C08E8005B08E7006408803AFF00B4
:100F6C0080307F02031DBC2F15306302031CDB2F66
:100F7C00831203136808803AFF0080307F02031D40
:100F8C00C92F15306702031CDB2F0A128A1509249E
:100F9C000A128A110A128A1538240A128A110A12A4
:100FAC008A1504240A128A11CF2E003083120313DF
:100FBC00DB00DC000A128A114E230A128A110A1273
:100FCC008A15FF230A128A110A128A15C2240A12E0
:100FDC008A11CF2E83120313EB01EC01ED01EE010C
:100FEC0083160313A001A101A201A30183010A121C
:040FFC008A11F62D33
:1017EA0083120313881408140800831203130817BA
:1017FA00881308008312031308138813080083123E
:10180A000313081288120800831203130812881699
:10181A00080083120313081688120800831603139C
:10182A0006108614061186150612861606138617E2
:10183A0007108714103083120313900008007808E9
:10184A00F0007908F100F2018E30FB007B08F3000A
:10185A00F4010A128A1172207008F8007108F9005E
:10186A007208FA0008008312031388150814153049
:10187A00F2004B30F100BE30F000F00B422CF10BBD
:10188A00422CF20B422C0000831203138811081019
:10189A00080083120313081588141530F2004B3020
:1018AA00F100BE30F000F00B582CF10B582CF20B63
:1018BA00582C000083120313081188100800F10144
:1018CA0001300A128A15AA2483120313810183168E
:1018DA000313081088100812881285148312031340
:1018EA000810881008118811080001300A128A1598
:1018FA0026250A128A157108F6007008F50075087F
:10190A007604031D8D2C831203138814081408000F
:10191A008312031388100810080001300A128A156E
:10192A0026250A128A157108F6007008F50075084E
:10193A007604031DA52C83120313081588150800C5
:10194A0083120313081188110800F20072080A12A0
:10195A008A1596250A128A1571080A128A153026DE
:10196A000A128A150A128A11FB21831603139F177A
:10197A00831203131F141F11080083120313081480
:10198A008814881508151530F2004B30F100BE3066
:10199A00F000F00BCE2CF10BCE2CF20BCE2C00006B
:1019AA008312031308108810881108110800FD011A
:1019BA00F91FE62CF809F909F80A0319F90AFD01D1
:1019CA00FD0A7808F0007908F100F2018E30FB0078
:1019DA007B08F3007D08FC007C08F4000A128A11D7
:1019EA0072207008F8007108F9007208FA000800FD
:1019FA008316031308108810081188110030831207
:101A0A000313A9000030A8001330A7008830A600ED
:101A1A000A128A15E3250A128A150A128A11062061
:101A2A000A128A15503083120313DB000030DC00DF
:101A3A000A128A114E230A128A150A128A15FF23DC
:101A4A000800F40008307402031C2E2DF001F10185
:101A5A000800831203131F08C5399F007408F20097
:101A6A0002300310F20DFF3E031D362D0310720DD6
:101A7A001F049F000630F3003030F200F20B432DB2
:101A8A00F30B432D0000831203131F151F194B2D4F
:101A9A001E08F100831603131E08F0000800FC015B
:101AAA008E30F9007908FB0083120313A91F6A2DEF
:101ABA00A609A709A809A909A60A0319A70A0319C1
:101ACA00A80A0319A90AFC01FC0AFF30290503190F
:101ADA007C2D01300310A90CA80CA70CA60CFF3E04
:101AEA00031D6F2D0130F9007908FB076A2D2608BE
:101AFA00F0002708F1002808F2007B08F9007908AD
:101B0A00F3007C08FA007A08F4000A128A1172209B
:101B1A00700883120313A6007108A7007208A800B0
:101B2A000800F000C82D831203139F111F129F1281
:101B3A000800831203139F151F129F1208008312B5
:101B4A0003139F111F169F120800831203139F1578
:101B5A001F169F120800831203139F111F129F164C
:101B6A000800831203139F151F129F160800831281
:101B7A0003139F111F169F160800831203139F1544
:101B8A001F169F1608007008003A0319982D013A8B
:101B9A0003199E2D033A0319A42D013A0319AA2DFC
:101BAA00073A0319B02D013A0319B62D033A03195E
:101BBA00BC2D013A0319C22DE22D0800831203132A
:101BCA002608F9002708FA002808FB002908FC0063
:101BDA0002300310F90DFA0DFB0DFC0DFF3E031D3B
:101BEA00EE2D02300310F90DFA0DFB0DFC0DFF3E30
:101BFA00031DF72D7C08F3007B08F2007A08F10038
:101C0A007908F0000030F7007A30F6001230F5005B
:101C1A000030F4000A128A116C217008FF3E831604
:101C2A000313920083120313290883160313A300D4
:101C3A0083120313280883160313A20083120313C3
:101C4A00270883160313A100831203132608831699
:101C5A000313A0000800F000672E831203131F135A
:101C6A009F13831603131F130800831203131F17EE
:101C7A009F13831603131F130800831203131F13E2
:101C8A009F17831603131F130800831203131F13CE
:101C9A009F13831603131F170800831203131F17BA
:101CAA009F13831603131F170800831203131F13AE
:101CBA009F17831603131F170800831203131F1796
:101CCA009F1708007008003A0319322E013A0319C7
:101CDA003A2E033A0319422E013A03194A2E073AB9
:101CEA000319522E013A03195A2E033A0319622E86
:101CFA007E2E08008312031387140C3083120313F9
:101D0A00DD00DD0B862E0000831203138710071DEA
:101D1A008C2E101407198F2E0F08DD00DE015D08C6
:101D2A00DE00DD015D080E04EB005E08EC00ED014B
:101D3A00EC1BED036D08EE006C08E0006B08DF0099
:101D4A006008F9005F08F8000A128A15DC240A12F2
:101D5A008A15780883120313A3007908A4007A0865
:101D6A00A5004830A0006B30A1004230A2000A1240
:101D7A008A1196220A128A15831203132008CD00AB
:101D8A002108CE002208CF000A128A11DE2083120F
:101D9A0003134E08E0004D08DF005F08013EDF0034
:101DAA0060080318013E003EE0006008DC005F089E
:101DBA00DB0008008312031306150C308312031389
:101DCA00DD00DD0BE62E0000831203130611861DCB
:101DDA00EC2E10148619EF2E0F08DD00DE015D08C7
:101DEA00DE00DD015D080E04EB005E08EC00ED018B
:101DFA00EC1BED036D08EE006C08E0006B08DF00D9
:101E0A006008F9005F08F8000A128A15DC240A1231
:101E1A008A15780883120313A3007908A4007A08A4
:101E2A00A5004830A0006B30A1004230A2000A127F
:101E3A008A1196220A128A15831203132008CD00EA
:101E4A002108CE002208CF000A128A11DE2083124E
:101E5A0003134E08E0004D08DF005F08013EDF0073
:101E6A0060080318013E003EE0006008DC005F08DD
:101E7A00DB0008008312031306170C3083120313C6
:101E8A00DD00DD0B462F0000831203130613861FA5
:101E9A004C2F1014861B4F2F0F08DD00DE015D0842
:101EAA00DE00DD015D080E04EB005E08EC00ED01CA
:101EBA00EC1BED036D08EE006C08E0006B08DF0018
:101ECA006008F9005F08F8000A128A15DC240A1271
:101EDA008A15780883120313A3007908A4007A08E4
:101EEA00A5004830A0006B30A1004230A2000A12BF
:101EFA008A1196220A128A15831203132008CD002A
:101F0A002108CE002208CF000A128A11DE2083128D
:101F1A0003134E08E0004D08DF005F08013EDF00B2
:101F2A0060080318013E003EE0006008DC005F081C
:101F3A00DB0008008312031306140C308312031308
:101F4A00DD00DD0BA62F0000831203130610861C8A
:101F5A00AC2F10148618AF2F10100F08DD00DE0109
:101F6A005D08DE00DD015D080E04EB005E08EC0092
:101F7A00ED01EC1BED036D08EE006C08E0006B0848
:101F8A00DF006008F9005F08F8000A128A15DC24ED
:101F9A000A128A15780883120313A3007908A40089
:101FAA007A08A5004830A0006B30A1004230A20098
:101FBA000A128A1196220A128A158312031320081A
:101FCA00CD002108CE002208CF000A128A11DE2095
:101FDA00831203134E08E0004D08DF005F08013E3C
:101FEA00DF0060080318013E003EE0006008DC00E4
:061FFA005F08DB00080097
:02400E007A3FF7
:00000001FF
